{
  "contractName": "ElectricityBill",
  "abi": [
    {
      "inputs": [
        {
          "internalType": "uint256",
          "name": "_ratePerUnit",
          "type": "uint256"
        }
      ],
      "stateMutability": "nonpayable",
      "type": "constructor"
    },
    {
      "anonymous": false,
      "inputs": [
        {
          "indexed": true,
          "internalType": "address",
          "name": "user",
          "type": "address"
        },
        {
          "indexed": false,
          "internalType": "uint256",
          "name": "unitsUsed",
          "type": "uint256"
        },
        {
          "indexed": false,
          "internalType": "uint256",
          "name": "billAmount",
          "type": "uint256"
        }
      ],
      "name": "BillGenerated",
      "type": "event"
    },
    {
      "inputs": [
        {
          "internalType": "address",
          "name": "",
          "type": "address"
        }
      ],
      "name": "bills",
      "outputs": [
        {
          "internalType": "uint256",
          "name": "previousReading",
          "type": "uint256"
        },
        {
          "internalType": "uint256",
          "name": "currentReading",
          "type": "uint256"
        },
        {
          "internalType": "uint256",
          "name": "unitsUsed",
          "type": "uint256"
        },
        {
          "internalType": "uint256",
          "name": "billAmount",
          "type": "uint256"
        }
      ],
      "stateMutability": "view",
      "type": "function",
      "constant": true
    },
    {
      "inputs": [],
      "name": "owner",
      "outputs": [
        {
          "internalType": "address",
          "name": "",
          "type": "address"
        }
      ],
      "stateMutability": "view",
      "type": "function",
      "constant": true
    },
    {
      "inputs": [],
      "name": "ratePerUnit",
      "outputs": [
        {
          "internalType": "uint256",
          "name": "",
          "type": "uint256"
        }
      ],
      "stateMutability": "view",
      "type": "function",
      "constant": true
    },
    {
      "inputs": [
        {
          "internalType": "uint256",
          "name": "previousReading",
          "type": "uint256"
        },
        {
          "internalType": "uint256",
          "name": "currentReading",
          "type": "uint256"
        }
      ],
      "name": "generateBill",
      "outputs": [],
      "stateMutability": "nonpayable",
      "type": "function"
    },
    {
      "inputs": [],
      "name": "getBill",
      "outputs": [
        {
          "components": [
            {
              "internalType": "uint256",
              "name": "previousReading",
              "type": "uint256"
            },
            {
              "internalType": "uint256",
              "name": "currentReading",
              "type": "uint256"
            },
            {
              "internalType": "uint256",
              "name": "unitsUsed",
              "type": "uint256"
            },
            {
              "internalType": "uint256",
              "name": "billAmount",
              "type": "uint256"
            }
          ],
          "internalType": "struct ElectricityBill.Bill",
          "name": "",
          "type": "tuple"
        }
      ],
      "stateMutability": "view",
      "type": "function",
      "constant": true
    }
  ],
  "bytecode": "0x608060405234801561001057600080fd5b506040516107d63803806107d683398181016040528101906100329190610094565b336000806101000a81548173ffffffffffffffffffffffffffffffffffffffff021916908373ffffffffffffffffffffffffffffffffffffffff16021790555080600181905550506100de565b60008151905061008e816100c7565b92915050565b6000602082840312156100a657600080fd5b60006100b48482850161007f565b91505092915050565b6000819050919050565b6100d0816100bd565b81146100db57600080fd5b50565b6106e9806100ed6000396000f3fe608060405234801561001057600080fd5b50600436106100575760003560e01c80630cfba5561461005c57806360fcebf61461008f5780638da5cb5b146100ab578063bebd9a49146100c9578063c0ce67e4146100e7575b600080fd5b61007660048036038101906100719190610375565b610105565b6040516100869493929190610536565b60405180910390f35b6100a960048036038101906100a4919061039e565b610135565b005b6100b361027a565b6040516100c0919061049c565b60405180910390f35b6100d161029e565b6040516100de91906104d7565b60405180910390f35b6100ef61031d565b6040516100fc91906104f2565b60405180910390f35b60026020528060005260406000206000915090508060000154908060010154908060020154908060030154905084565b81811015610178576040517f08c379a000000000000000000000000000000000000000000000000000000000815260040161016f906104b7565b60405180910390fd5b6000828261018691906105e6565b9050600060015482610198919061058c565b9050604051806080016040528085815260200184815260200183815260200182815250600260003373ffffffffffffffffffffffffffffffffffffffff1673ffffffffffffffffffffffffffffffffffffffff168152602001908152602001600020600082015181600001556020820151816001015560408201518160020155606082015181600301559050503373ffffffffffffffffffffffffffffffffffffffff167e1815bcfb7a5b037661c6aa1d39825171a124b32f99e3fc230765858b21d2da838360405161026c92919061050d565b60405180910390a250505050565b60008054906101000a900473ffffffffffffffffffffffffffffffffffffffff1681565b6102a6610323565b600260003373ffffffffffffffffffffffffffffffffffffffff1673ffffffffffffffffffffffffffffffffffffffff168152602001908152602001600020604051806080016040529081600082015481526020016001820154815260200160028201548152602001600382015481525050905090565b60015481565b6040518060800160405280600081526020016000815260200160008152602001600081525090565b60008135905061035a81610685565b92915050565b60008135905061036f8161069c565b92915050565b60006020828403121561038757600080fd5b60006103958482850161034b565b91505092915050565b600080604083850312156103b157600080fd5b60006103bf85828601610360565b92505060206103d085828601610360565b9150509250929050565b6103e38161061a565b82525050565b60006103f660168361057b565b91507f496e76616c6964206d657465722072656164696e6773000000000000000000006000830152602082019050919050565b60808201600082015161043f600085018261047e565b506020820151610452602085018261047e565b506040820151610465604085018261047e565b506060820151610478606085018261047e565b50505050565b6104878161064c565b82525050565b6104968161064c565b82525050565b60006020820190506104b160008301846103da565b92915050565b600060208201905081810360008301526104d0816103e9565b9050919050565b60006080820190506104ec6000830184610429565b92915050565b6000602082019050610507600083018461048d565b92915050565b6000604082019050610522600083018561048d565b61052f602083018461048d565b9392505050565b600060808201905061054b600083018761048d565b610558602083018661048d565b610565604083018561048d565b610572606083018461048d565b95945050505050565b600082825260208201905092915050565b60006105978261064c565b91506105a28361064c565b9250817fffffffffffffffffffffffffffffffffffffffffffffffffffffffffffffffff04831182151516156105db576105da610656565b5b828202905092915050565b60006105f18261064c565b91506105fc8361064c565b92508282101561060f5761060e610656565b5b828203905092915050565b60006106258261062c565b9050919050565b600073ffffffffffffffffffffffffffffffffffffffff82169050919050565b6000819050919050565b7f4e487b7100000000000000000000000000000000000000000000000000000000600052601160045260246000fd5b61068e8161061a565b811461069957600080fd5b50565b6106a58161064c565b81146106b057600080fd5b5056fea2646970667358221220a6298f16cea17fc3e5f60c8449c032bb9fa365190b151ef4d8f47f9312947a7064736f6c63430008000033",
  "immutableReferences": {},
  "source": "// SPDX-License-Identifier: MIT\r\npragma solidity ^0.8.0;\r\n\r\ncontract ElectricityBill {\r\n    address public owner;\r\n    uint256 public ratePerUnit;  // Cost per unit of electricity\r\n\r\n    // Structure to store user bill data\r\n    struct Bill {\r\n        uint256 previousReading;\r\n        uint256 currentReading;\r\n        uint256 unitsUsed;\r\n        uint256 billAmount;\r\n    }\r\n\r\n    mapping(address => Bill) public bills;\r\n\r\n    event BillGenerated(address indexed user, uint256 unitsUsed, uint256 billAmount);\r\n\r\n    constructor(uint256 _ratePerUnit) {\r\n        owner = msg.sender;\r\n        ratePerUnit = _ratePerUnit;\r\n    }\r\n\r\n    // Function to generate bill based on readings\r\n    function generateBill(uint256 previousReading, uint256 currentReading) public {\r\n        require(currentReading >= previousReading, \"Invalid meter readings\");\r\n\r\n        uint256 unitsUsed = currentReading - previousReading;\r\n        uint256 billAmount = unitsUsed * ratePerUnit;\r\n\r\n        bills[msg.sender] = Bill(previousReading, currentReading, unitsUsed, billAmount);\r\n        emit BillGenerated(msg.sender, unitsUsed, billAmount);\r\n    }\r\n\r\n    // Function to get the bill details\r\n    function getBill() public view returns (Bill memory) {\r\n        return bills[msg.sender];\r\n    }\r\n}\r\n\r\n",
  "sourcePath": "F:\\dapp\\contracts\\ElectricityBill.sol",
  "compiler": {
    "name": "solc",
    "version": "0.8.0+commit.c7dfd78e.Emscripten.clang"
  },
  "schemaVersion": "3.4.16",
  "updatedAt": "2024-11-26T14:49:43.723Z",
  "networkType": "ethereum",
  "devdoc": {
    "kind": "dev",
    "methods": {},
    "version": 1
  },
  "userdoc": {
    "kind": "user",
    "methods": {},
    "version": 1
  }
}